{
  "contractName": "NFT",
  "abi": [
    {
      "inputs": [],
      "stateMutability": "nonpayable",
      "type": "constructor"
    },
    {
      "anonymous": false,
      "inputs": [
        {
          "indexed": true,
          "internalType": "address",
          "name": "owner",
          "type": "address"
        },
        {
          "indexed": true,
          "internalType": "address",
          "name": "approved",
          "type": "address"
        },
        {
          "indexed": true,
          "internalType": "uint256",
          "name": "tokenId",
          "type": "uint256"
        }
      ],
      "name": "Approval",
      "type": "event"
    },
    {
      "anonymous": false,
      "inputs": [
        {
          "indexed": true,
          "internalType": "address",
          "name": "owner",
          "type": "address"
        },
        {
          "indexed": true,
          "internalType": "address",
          "name": "operator",
          "type": "address"
        },
        {
          "indexed": false,
          "internalType": "bool",
          "name": "approved",
          "type": "bool"
        }
      ],
      "name": "ApprovalForAll",
      "type": "event"
    },
    {
      "anonymous": false,
      "inputs": [
        {
          "indexed": true,
          "internalType": "address",
          "name": "from",
          "type": "address"
        },
        {
          "indexed": true,
          "internalType": "address",
          "name": "to",
          "type": "address"
        },
        {
          "indexed": true,
          "internalType": "uint256",
          "name": "tokenId",
          "type": "uint256"
        }
      ],
      "name": "Transfer",
      "type": "event"
    },
    {
      "inputs": [
        {
          "internalType": "address",
          "name": "to",
          "type": "address"
        },
        {
          "internalType": "uint256",
          "name": "tokenId",
          "type": "uint256"
        }
      ],
      "name": "approve",
      "outputs": [],
      "stateMutability": "nonpayable",
      "type": "function"
    },
    {
      "inputs": [
        {
          "internalType": "address",
          "name": "owner",
          "type": "address"
        }
      ],
      "name": "balanceOf",
      "outputs": [
        {
          "internalType": "uint256",
          "name": "",
          "type": "uint256"
        }
      ],
      "stateMutability": "view",
      "type": "function",
      "constant": true
    },
    {
      "inputs": [],
      "name": "chain",
      "outputs": [
        {
          "internalType": "string",
          "name": "",
          "type": "string"
        }
      ],
      "stateMutability": "view",
      "type": "function",
      "constant": true
    },
    {
      "inputs": [
        {
          "internalType": "uint256",
          "name": "tokenId",
          "type": "uint256"
        }
      ],
      "name": "getApproved",
      "outputs": [
        {
          "internalType": "address",
          "name": "",
          "type": "address"
        }
      ],
      "stateMutability": "view",
      "type": "function",
      "constant": true
    },
    {
      "inputs": [
        {
          "internalType": "address",
          "name": "owner",
          "type": "address"
        },
        {
          "internalType": "address",
          "name": "operator",
          "type": "address"
        }
      ],
      "name": "isApprovedForAll",
      "outputs": [
        {
          "internalType": "bool",
          "name": "",
          "type": "bool"
        }
      ],
      "stateMutability": "view",
      "type": "function",
      "constant": true
    },
    {
      "inputs": [],
      "name": "maxLength",
      "outputs": [
        {
          "internalType": "uint256",
          "name": "",
          "type": "uint256"
        }
      ],
      "stateMutability": "view",
      "type": "function",
      "constant": true
    },
    {
      "inputs": [],
      "name": "maxMintLimit",
      "outputs": [
        {
          "internalType": "uint256",
          "name": "",
          "type": "uint256"
        }
      ],
      "stateMutability": "view",
      "type": "function",
      "constant": true
    },
    {
      "inputs": [],
      "name": "name",
      "outputs": [
        {
          "internalType": "string",
          "name": "",
          "type": "string"
        }
      ],
      "stateMutability": "view",
      "type": "function",
      "constant": true
    },
    {
      "inputs": [],
      "name": "nftName",
      "outputs": [
        {
          "internalType": "string",
          "name": "",
          "type": "string"
        }
      ],
      "stateMutability": "view",
      "type": "function",
      "constant": true
    },
    {
      "inputs": [],
      "name": "normalPrice",
      "outputs": [
        {
          "internalType": "uint256",
          "name": "",
          "type": "uint256"
        }
      ],
      "stateMutability": "view",
      "type": "function",
      "constant": true
    },
    {
      "inputs": [],
      "name": "owner",
      "outputs": [
        {
          "internalType": "address",
          "name": "",
          "type": "address"
        }
      ],
      "stateMutability": "view",
      "type": "function",
      "constant": true
    },
    {
      "inputs": [
        {
          "internalType": "uint256",
          "name": "tokenId",
          "type": "uint256"
        }
      ],
      "name": "ownerOf",
      "outputs": [
        {
          "internalType": "address",
          "name": "",
          "type": "address"
        }
      ],
      "stateMutability": "view",
      "type": "function",
      "constant": true
    },
    {
      "inputs": [
        {
          "internalType": "address",
          "name": "from",
          "type": "address"
        },
        {
          "internalType": "address",
          "name": "to",
          "type": "address"
        },
        {
          "internalType": "uint256",
          "name": "tokenId",
          "type": "uint256"
        }
      ],
      "name": "safeTransferFrom",
      "outputs": [],
      "stateMutability": "nonpayable",
      "type": "function"
    },
    {
      "inputs": [
        {
          "internalType": "address",
          "name": "from",
          "type": "address"
        },
        {
          "internalType": "address",
          "name": "to",
          "type": "address"
        },
        {
          "internalType": "uint256",
          "name": "tokenId",
          "type": "uint256"
        },
        {
          "internalType": "bytes",
          "name": "_data",
          "type": "bytes"
        }
      ],
      "name": "safeTransferFrom",
      "outputs": [],
      "stateMutability": "nonpayable",
      "type": "function"
    },
    {
      "inputs": [
        {
          "internalType": "address",
          "name": "operator",
          "type": "address"
        },
        {
          "internalType": "bool",
          "name": "approved",
          "type": "bool"
        }
      ],
      "name": "setApprovalForAll",
      "outputs": [],
      "stateMutability": "nonpayable",
      "type": "function"
    },
    {
      "inputs": [
        {
          "internalType": "bytes4",
          "name": "interfaceId",
          "type": "bytes4"
        }
      ],
      "name": "supportsInterface",
      "outputs": [
        {
          "internalType": "bool",
          "name": "",
          "type": "bool"
        }
      ],
      "stateMutability": "view",
      "type": "function",
      "constant": true
    },
    {
      "inputs": [],
      "name": "symbol",
      "outputs": [
        {
          "internalType": "string",
          "name": "",
          "type": "string"
        }
      ],
      "stateMutability": "view",
      "type": "function",
      "constant": true
    },
    {
      "inputs": [
        {
          "internalType": "uint256",
          "name": "tokenId",
          "type": "uint256"
        }
      ],
      "name": "tokenURI",
      "outputs": [
        {
          "internalType": "string",
          "name": "",
          "type": "string"
        }
      ],
      "stateMutability": "view",
      "type": "function",
      "constant": true
    },
    {
      "inputs": [],
      "name": "totalMint",
      "outputs": [
        {
          "internalType": "uint256",
          "name": "",
          "type": "uint256"
        }
      ],
      "stateMutability": "view",
      "type": "function",
      "constant": true
    },
    {
      "inputs": [
        {
          "internalType": "address",
          "name": "from",
          "type": "address"
        },
        {
          "internalType": "address",
          "name": "to",
          "type": "address"
        },
        {
          "internalType": "uint256",
          "name": "tokenId",
          "type": "uint256"
        }
      ],
      "name": "transferFrom",
      "outputs": [],
      "stateMutability": "nonpayable",
      "type": "function"
    },
    {
      "inputs": [],
      "name": "whiteListPrice",
      "outputs": [
        {
          "internalType": "uint256",
          "name": "",
          "type": "uint256"
        }
      ],
      "stateMutability": "view",
      "type": "function",
      "constant": true
    },
    {
      "inputs": [
        {
          "internalType": "uint256",
          "name": "",
          "type": "uint256"
        }
      ],
      "name": "whitelist",
      "outputs": [
        {
          "internalType": "address",
          "name": "",
          "type": "address"
        }
      ],
      "stateMutability": "view",
      "type": "function",
      "constant": true
    },
    {
      "stateMutability": "payable",
      "type": "receive",
      "payable": true
    },
    {
      "inputs": [
        {
          "internalType": "address",
          "name": "player",
          "type": "address"
        },
        {
          "internalType": "string[]",
          "name": "tokenURI",
          "type": "string[]"
        }
      ],
      "name": "awardItem",
      "outputs": [],
      "stateMutability": "payable",
      "type": "function",
      "payable": true
    },
    {
      "inputs": [
        {
          "internalType": "uint256",
          "name": "withdrawAmount",
          "type": "uint256"
        }
      ],
      "name": "claimBalance",
      "outputs": [],
      "stateMutability": "payable",
      "type": "function",
      "payable": true
    },
    {
      "inputs": [
        {
          "internalType": "uint256",
          "name": "withdrawAmount",
          "type": "uint256"
        },
        {
          "internalType": "address",
          "name": "adres",
          "type": "address"
        }
      ],
      "name": "sendBalance",
      "outputs": [],
      "stateMutability": "payable",
      "type": "function",
      "payable": true
    },
    {
      "inputs": [
        {
          "internalType": "address",
          "name": "adres",
          "type": "address"
        }
      ],
      "name": "addWhiteListAdress",
      "outputs": [],
      "stateMutability": "payable",
      "type": "function",
      "payable": true
    },
    {
      "inputs": [
        {
          "internalType": "address",
          "name": "adres",
          "type": "address"
        }
      ],
      "name": "changeOwner",
      "outputs": [],
      "stateMutability": "payable",
      "type": "function",
      "payable": true
    },
    {
      "inputs": [
        {
          "internalType": "uint256",
          "name": "wprice",
          "type": "uint256"
        }
      ],
      "name": "changeWhiteListedPrice",
      "outputs": [],
      "stateMutability": "payable",
      "type": "function",
      "payable": true
    },
    {
      "inputs": [],
      "name": "getWhiteListAddress",
      "outputs": [
        {
          "internalType": "address[]",
          "name": "",
          "type": "address[]"
        }
      ],
      "stateMutability": "view",
      "type": "function",
      "constant": true
    },
    {
      "inputs": [
        {
          "internalType": "uint256",
          "name": "nprice",
          "type": "uint256"
        }
      ],
      "name": "changeNFTPrice",
      "outputs": [],
      "stateMutability": "payable",
      "type": "function",
      "payable": true
    }
  ],
  "bytecode": "0x6080604052737d477dd546090ebf7db262ed23cab058623b97b8600860006101000a81548173ffffffffffffffffffffffffffffffffffffffff021916908373ffffffffffffffffffffffffffffffffffffffff16021790555067016345785d8a0000600955662386f26fc10000600a55600a600b556064600c556000600e556040518060400160405280600381526020017f4e46540000000000000000000000000000000000000000000000000000000000815250600f9080519060200190620000cc929190620001cf565b506040518060400160405280600381526020017f3078350000000000000000000000000000000000000000000000000000000000815250601090805190602001906200011a929190620001cf565b503480156200012857600080fd5b506040518060400160405280600381526020017f4e465400000000000000000000000000000000000000000000000000000000008152506040518060400160405280600381526020017f4e465400000000000000000000000000000000000000000000000000000000008152508160009080519060200190620001ad929190620001cf565b508060019080519060200190620001c6929190620001cf565b505050620002e4565b828054620001dd906200027f565b90600052602060002090601f0160209004810192826200020157600085556200024d565b82601f106200021c57805160ff19168380011785556200024d565b828001600101855582156200024d579182015b828111156200024c5782518255916020019190600101906200022f565b5b5090506200025c919062000260565b5090565b5b808211156200027b57600081600090555060010162000261565b5090565b600060028204905060018216806200029857607f821691505b60208210811415620002af57620002ae620002b5565b5b50919050565b7f4e487b7100000000000000000000000000000000000000000000000000000000600052602260045260246000fd5b613adb80620002f46000396000f3fe6080604052600436106101d05760003560e01c80638da5cb5b116100f7578063ad6a81e411610095578063d06a89a411610064578063d06a89a414610651578063e985e9c51461067c578063e9fad396146106b9578063edc4400a146106d5576101d7565b8063ad6a81e4146105a4578063b88d4fde146105c0578063c763e5a1146105e9578063c87b56dd14610614576101d7565b80639872d8fc116100d15780639872d8fc14610527578063a22cb46514610543578063a6f9dae11461056c578063a74c03ae14610588576101d7565b80638da5cb5b146104a6578063945ec9dd146104d157806395d89b41146104fc576101d7565b806342842e0e1161016f578063685756851161013e57806368575685146103d657806370a082311461040157806370e2f8271461043e5780637ebd1b3014610469576101d7565b806342842e0e146103295780634f81aabf1461035257806359a7715a1461036e5780636352211e14610399576101d7565b806306fdde03116101ab57806306fdde031461026f578063081812fc1461029a578063095ea7b3146102d757806323b872dd14610300576101d7565b80628bfb00146101dc57806301ffc9a71461020757806305bb4e5b14610244576101d7565b366101d757005b600080fd5b3480156101e857600080fd5b506101f16106f1565b6040516101fe9190612e6a565b60405180910390f35b34801561021357600080fd5b5061022e60048036038101906102299190612943565b61077f565b60405161023b9190612e4f565b60405180910390f35b34801561025057600080fd5b50610259610861565b6040516102669190612e2d565b60405180910390f35b34801561027b57600080fd5b506102846108ef565b6040516102919190612e6a565b60405180910390f35b3480156102a657600080fd5b506102c160048036038101906102bc9190612995565b610981565b6040516102ce9190612dc6565b60405180910390f35b3480156102e357600080fd5b506102fe60048036038101906102f99190612907565b610a06565b005b34801561030c57600080fd5b50610327600480360381019061032291906127ad565b610b1e565b005b34801561033557600080fd5b50610350600480360381019061034b91906127ad565b610b7e565b005b61036c60048036038101906103679190612995565b610b9e565b005b34801561037a57600080fd5b50610383610c38565b60405161039091906130ac565b60405180910390f35b3480156103a557600080fd5b506103c060048036038101906103bb9190612995565b610c3e565b6040516103cd9190612dc6565b60405180910390f35b3480156103e257600080fd5b506103eb610cf0565b6040516103f891906130ac565b60405180910390f35b34801561040d57600080fd5b5061042860048036038101906104239190612748565b610cf6565b60405161043591906130ac565b60405180910390f35b34801561044a57600080fd5b50610453610dae565b60405161046091906130ac565b60405180910390f35b34801561047557600080fd5b50610490600480360381019061048b9190612995565b610db4565b60405161049d9190612dc6565b60405180910390f35b3480156104b257600080fd5b506104bb610df3565b6040516104c89190612dc6565b60405180910390f35b3480156104dd57600080fd5b506104e6610e19565b6040516104f391906130ac565b60405180910390f35b34801561050857600080fd5b50610511610e1f565b60405161051e9190612e6a565b60405180910390f35b610541600480360381019061053c91906129be565b610eb1565b005b34801561054f57600080fd5b5061056a600480360381019061056591906128cb565b610f8c565b005b61058660048036038101906105819190612748565b61110d565b005b6105a2600480360381019061059d9190612748565b6111e1565b005b6105be60048036038101906105b99190612877565b6112d7565b005b3480156105cc57600080fd5b506105e760048036038101906105e291906127fc565b6114bf565b005b3480156105f557600080fd5b506105fe611521565b60405161060b9190612e6a565b60405180910390f35b34801561062057600080fd5b5061063b60048036038101906106369190612995565b6115af565b6040516106489190612e6a565b60405180910390f35b34801561065d57600080fd5b50610666611701565b60405161067391906130ac565b60405180910390f35b34801561068857600080fd5b506106a3600480360381019061069e9190612771565b611707565b6040516106b09190612e4f565b60405180910390f35b6106d360048036038101906106ce9190612995565b61179b565b005b6106ef60048036038101906106ea9190612995565b611875565b005b600f80546106fe906133ce565b80601f016020809104026020016040519081016040528092919081815260200182805461072a906133ce565b80156107775780601f1061074c57610100808354040283529160200191610777565b820191906000526020600020905b81548152906001019060200180831161075a57829003601f168201915b505050505081565b60007f80ac58cd000000000000000000000000000000000000000000000000000000007bffffffffffffffffffffffffffffffffffffffffffffffffffffffff1916827bffffffffffffffffffffffffffffffffffffffffffffffffffffffff1916148061084a57507f5b5e139f000000000000000000000000000000000000000000000000000000007bffffffffffffffffffffffffffffffffffffffffffffffffffffffff1916827bffffffffffffffffffffffffffffffffffffffffffffffffffffffff1916145b8061085a57506108598261190f565b5b9050919050565b6060600d8054806020026020016040519081016040528092919081815260200182805480156108e557602002820191906000526020600020905b8160009054906101000a900473ffffffffffffffffffffffffffffffffffffffff1673ffffffffffffffffffffffffffffffffffffffff168152602001906001019080831161089b575b5050505050905090565b6060600080546108fe906133ce565b80601f016020809104026020016040519081016040528092919081815260200182805461092a906133ce565b80156109775780601f1061094c57610100808354040283529160200191610977565b820191906000526020600020905b81548152906001019060200180831161095a57829003601f168201915b5050505050905090565b600061098c82611979565b6109cb576040517f08c379a00000000000000000000000000000000000000000000000000000000081526004016109c290612fec565b60405180910390fd5b6004600083815260200190815260200160002060009054906101000a900473ffffffffffffffffffffffffffffffffffffffff169050919050565b6000610a1182610c3e565b90508073ffffffffffffffffffffffffffffffffffffffff168373ffffffffffffffffffffffffffffffffffffffff161415610a82576040517f08c379a0000000000000000000000000000000000000000000000000000000008152600401610a799061304c565b60405180910390fd5b8073ffffffffffffffffffffffffffffffffffffffff16610aa16119e5565b73ffffffffffffffffffffffffffffffffffffffff161480610ad05750610acf81610aca6119e5565b611707565b5b610b0f576040517f08c379a0000000000000000000000000000000000000000000000000000000008152600401610b0690612f2c565b60405180910390fd5b610b1983836119ed565b505050565b610b2f610b296119e5565b82611aa6565b610b6e576040517f08c379a0000000000000000000000000000000000000000000000000000000008152600401610b659061308c565b60405180910390fd5b610b79838383611b84565b505050565b610b99838383604051806020016040528060008152506114bf565b505050565b600860009054906101000a900473ffffffffffffffffffffffffffffffffffffffff1673ffffffffffffffffffffffffffffffffffffffff163373ffffffffffffffffffffffffffffffffffffffff1614610c2e576040517f08c379a0000000000000000000000000000000000000000000000000000000008152600401610c259061306c565b60405180910390fd5b80600a8190555050565b600e5481565b6000806002600084815260200190815260200160002060009054906101000a900473ffffffffffffffffffffffffffffffffffffffff169050600073ffffffffffffffffffffffffffffffffffffffff168173ffffffffffffffffffffffffffffffffffffffff161415610ce7576040517f08c379a0000000000000000000000000000000000000000000000000000000008152600401610cde90612f6c565b60405180910390fd5b80915050919050565b600a5481565b60008073ffffffffffffffffffffffffffffffffffffffff168273ffffffffffffffffffffffffffffffffffffffff161415610d67576040517f08c379a0000000000000000000000000000000000000000000000000000000008152600401610d5e90612f4c565b60405180910390fd5b600360008373ffffffffffffffffffffffffffffffffffffffff1673ffffffffffffffffffffffffffffffffffffffff168152602001908152602001600020549050919050565b600c5481565b600d8181548110610dc457600080fd5b906000526020600020016000915054906101000a900473ffffffffffffffffffffffffffffffffffffffff1681565b600860009054906101000a900473ffffffffffffffffffffffffffffffffffffffff1681565b60095481565b606060018054610e2e906133ce565b80601f0160208091040260200160405190810160405280929190818152602001828054610e5a906133ce565b8015610ea75780601f10610e7c57610100808354040283529160200191610ea7565b820191906000526020600020905b815481529060010190602001808311610e8a57829003601f168201915b5050505050905090565b600860009054906101000a900473ffffffffffffffffffffffffffffffffffffffff1673ffffffffffffffffffffffffffffffffffffffff163373ffffffffffffffffffffffffffffffffffffffff1614610f41576040517f08c379a0000000000000000000000000000000000000000000000000000000008152600401610f389061306c565b60405180910390fd5b8073ffffffffffffffffffffffffffffffffffffffff166108fc839081150290604051600060405180830381858888f19350505050158015610f87573d6000803e3d6000fd5b505050565b610f946119e5565b73ffffffffffffffffffffffffffffffffffffffff168273ffffffffffffffffffffffffffffffffffffffff161415611002576040517f08c379a0000000000000000000000000000000000000000000000000000000008152600401610ff990612eec565b60405180910390fd5b806005600061100f6119e5565b73ffffffffffffffffffffffffffffffffffffffff1673ffffffffffffffffffffffffffffffffffffffff16815260200190815260200160002060008473ffffffffffffffffffffffffffffffffffffffff1673ffffffffffffffffffffffffffffffffffffffff16815260200190815260200160002060006101000a81548160ff0219169083151502179055508173ffffffffffffffffffffffffffffffffffffffff166110bc6119e5565b73ffffffffffffffffffffffffffffffffffffffff167f17307eab39ab6107e8899845ad3d59bd9653f200f220920489ca2b5937696c31836040516111019190612e4f565b60405180910390a35050565b600860009054906101000a900473ffffffffffffffffffffffffffffffffffffffff1673ffffffffffffffffffffffffffffffffffffffff163373ffffffffffffffffffffffffffffffffffffffff161461119d576040517f08c379a00000000000000000000000000000000000000000000000000000000081526004016111949061306c565b60405180910390fd5b80600860006101000a81548173ffffffffffffffffffffffffffffffffffffffff021916908373ffffffffffffffffffffffffffffffffffffffff16021790555050565b600860009054906101000a900473ffffffffffffffffffffffffffffffffffffffff1673ffffffffffffffffffffffffffffffffffffffff163373ffffffffffffffffffffffffffffffffffffffff1614611271576040517f08c379a00000000000000000000000000000000000000000000000000000000081526004016112689061306c565b60405180910390fd5b600d819080600181540180825580915050600190039060005260206000200160009091909190916101000a81548173ffffffffffffffffffffffffffffffffffffffff021916908373ffffffffffffffffffffffffffffffffffffffff16021790555050565b60008060005b600d805490508160ff1610156113a0573373ffffffffffffffffffffffffffffffffffffffff16600d8260ff1681548110611341577f4e487b7100000000000000000000000000000000000000000000000000000000600052603260045260246000fd5b9060005260206000200160009054906101000a900473ffffffffffffffffffffffffffffffffffffffff1673ffffffffffffffffffffffffffffffffffffffff16141561138d57600192505b80806113989061347a565b9150506112dd565b503460095484516113b1919061327d565b111580156113c25750600b54835111155b80156113de575060008351600c546113da91906132d7565b1115155b806113e65750815b6113ef57600080fd5b8115611414578251600a54611404919061327d565b34101590508061141357600080fd5b5b60005b83518110156114b857600061142c6007611de0565b90506114386007611dee565b6114428682611e04565b61148c8186848151811061147f577f4e487b7100000000000000000000000000000000000000000000000000000000600052603260045260246000fd5b6020026020010151611fd2565b600e600081548092919061149f90613431565b91905055505080806114b090613431565b915050611417565b5050505050565b6114d06114ca6119e5565b83611aa6565b61150f576040517f08c379a00000000000000000000000000000000000000000000000000000000081526004016115069061308c565b60405180910390fd5b61151b84848484612046565b50505050565b6010805461152e906133ce565b80601f016020809104026020016040519081016040528092919081815260200182805461155a906133ce565b80156115a75780601f1061157c576101008083540402835291602001916115a7565b820191906000526020600020905b81548152906001019060200180831161158a57829003601f168201915b505050505081565b60606115ba82611979565b6115f9576040517f08c379a00000000000000000000000000000000000000000000000000000000081526004016115f090612fcc565b60405180910390fd5b6000600660008481526020019081526020016000208054611619906133ce565b80601f0160208091040260200160405190810160405280929190818152602001828054611645906133ce565b80156116925780601f1061166757610100808354040283529160200191611692565b820191906000526020600020905b81548152906001019060200180831161167557829003601f168201915b5050505050905060006116a36120a2565b90506000815114156116b95781925050506116fc565b6000825111156116ee5780826040516020016116d6929190612da2565b604051602081830303815290604052925050506116fc565b6116f7846120b9565b925050505b919050565b600b5481565b6000600560008473ffffffffffffffffffffffffffffffffffffffff1673ffffffffffffffffffffffffffffffffffffffff16815260200190815260200160002060008373ffffffffffffffffffffffffffffffffffffffff1673ffffffffffffffffffffffffffffffffffffffff16815260200190815260200160002060009054906101000a900460ff16905092915050565b600860009054906101000a900473ffffffffffffffffffffffffffffffffffffffff1673ffffffffffffffffffffffffffffffffffffffff163373ffffffffffffffffffffffffffffffffffffffff161461182b576040517f08c379a00000000000000000000000000000000000000000000000000000000081526004016118229061306c565b60405180910390fd5b3373ffffffffffffffffffffffffffffffffffffffff166108fc829081150290604051600060405180830381858888f19350505050158015611871573d6000803e3d6000fd5b5050565b600860009054906101000a900473ffffffffffffffffffffffffffffffffffffffff1673ffffffffffffffffffffffffffffffffffffffff163373ffffffffffffffffffffffffffffffffffffffff1614611905576040517f08c379a00000000000000000000000000000000000000000000000000000000081526004016118fc9061306c565b60405180910390fd5b8060098190555050565b60007f01ffc9a7000000000000000000000000000000000000000000000000000000007bffffffffffffffffffffffffffffffffffffffffffffffffffffffff1916827bffffffffffffffffffffffffffffffffffffffffffffffffffffffff1916149050919050565b60008073ffffffffffffffffffffffffffffffffffffffff166002600084815260200190815260200160002060009054906101000a900473ffffffffffffffffffffffffffffffffffffffff1673ffffffffffffffffffffffffffffffffffffffff1614159050919050565b600033905090565b816004600083815260200190815260200160002060006101000a81548173ffffffffffffffffffffffffffffffffffffffff021916908373ffffffffffffffffffffffffffffffffffffffff160217905550808273ffffffffffffffffffffffffffffffffffffffff16611a6083610c3e565b73ffffffffffffffffffffffffffffffffffffffff167f8c5be1e5ebec7d5bd14f71427d1e84f3dd0314c0f7b2291e5b200ac8c7c3b92560405160405180910390a45050565b6000611ab182611979565b611af0576040517f08c379a0000000000000000000000000000000000000000000000000000000008152600401611ae790612f0c565b60405180910390fd5b6000611afb83610c3e565b90508073ffffffffffffffffffffffffffffffffffffffff168473ffffffffffffffffffffffffffffffffffffffff161480611b6a57508373ffffffffffffffffffffffffffffffffffffffff16611b5284610981565b73ffffffffffffffffffffffffffffffffffffffff16145b80611b7b5750611b7a8185611707565b5b91505092915050565b8273ffffffffffffffffffffffffffffffffffffffff16611ba482610c3e565b73ffffffffffffffffffffffffffffffffffffffff1614611bfa576040517f08c379a0000000000000000000000000000000000000000000000000000000008152600401611bf19061300c565b60405180910390fd5b600073ffffffffffffffffffffffffffffffffffffffff168273ffffffffffffffffffffffffffffffffffffffff161415611c6a576040517f08c379a0000000000000000000000000000000000000000000000000000000008152600401611c6190612ecc565b60405180910390fd5b611c75838383612160565b611c806000826119ed565b6001600360008573ffffffffffffffffffffffffffffffffffffffff1673ffffffffffffffffffffffffffffffffffffffff1681526020019081526020016000206000828254611cd091906132d7565b925050819055506001600360008473ffffffffffffffffffffffffffffffffffffffff1673ffffffffffffffffffffffffffffffffffffffff1681526020019081526020016000206000828254611d2791906131f6565b92505081905550816002600083815260200190815260200160002060006101000a81548173ffffffffffffffffffffffffffffffffffffffff021916908373ffffffffffffffffffffffffffffffffffffffff160217905550808273ffffffffffffffffffffffffffffffffffffffff168473ffffffffffffffffffffffffffffffffffffffff167fddf252ad1be2c89b69c2b068fc378daa952ba7f163c4a11628f55a4df523b3ef60405160405180910390a4505050565b600081600001549050919050565b6001816000016000828254019250508190555050565b600073ffffffffffffffffffffffffffffffffffffffff168273ffffffffffffffffffffffffffffffffffffffff161415611e74576040517f08c379a0000000000000000000000000000000000000000000000000000000008152600401611e6b90612fac565b60405180910390fd5b611e7d81611979565b15611ebd576040517f08c379a0000000000000000000000000000000000000000000000000000000008152600401611eb490612eac565b60405180910390fd5b611ec960008383612160565b6001600360008473ffffffffffffffffffffffffffffffffffffffff1673ffffffffffffffffffffffffffffffffffffffff1681526020019081526020016000206000828254611f1991906131f6565b92505081905550816002600083815260200190815260200160002060006101000a81548173ffffffffffffffffffffffffffffffffffffffff021916908373ffffffffffffffffffffffffffffffffffffffff160217905550808273ffffffffffffffffffffffffffffffffffffffff16600073ffffffffffffffffffffffffffffffffffffffff167fddf252ad1be2c89b69c2b068fc378daa952ba7f163c4a11628f55a4df523b3ef60405160405180910390a45050565b611fdb82611979565b61201a576040517f08c379a000000000000000000000000000000000000000000000000000000000815260040161201190612f8c565b60405180910390fd5b806006600084815260200190815260200160002090805190602001906120419291906124bc565b505050565b612051848484611b84565b61205d84848484612165565b61209c576040517f08c379a000000000000000000000000000000000000000000000000000000000815260040161209390612e8c565b60405180910390fd5b50505050565b606060405180602001604052806000815250905090565b60606120c482611979565b612103576040517f08c379a00000000000000000000000000000000000000000000000000000000081526004016120fa9061302c565b60405180910390fd5b600061210d6120a2565b9050600081511161212d5760405180602001604052806000815250612158565b80612137846122fc565b604051602001612148929190612da2565b6040516020818303038152906040525b915050919050565b505050565b60006121868473ffffffffffffffffffffffffffffffffffffffff166124a9565b156122ef578373ffffffffffffffffffffffffffffffffffffffff1663150b7a026121af6119e5565b8786866040518563ffffffff1660e01b81526004016121d19493929190612de1565b602060405180830381600087803b1580156121eb57600080fd5b505af192505050801561221c57506040513d601f19601f82011682018060405250810190612219919061296c565b60015b61229f573d806000811461224c576040519150601f19603f3d011682016040523d82523d6000602084013e612251565b606091505b50600081511415612297576040517f08c379a000000000000000000000000000000000000000000000000000000000815260040161228e90612e8c565b60405180910390fd5b805181602001fd5b63150b7a0260e01b7bffffffffffffffffffffffffffffffffffffffffffffffffffffffff1916817bffffffffffffffffffffffffffffffffffffffffffffffffffffffff1916149150506122f4565b600190505b949350505050565b60606000821415612344576040518060400160405280600181526020017f300000000000000000000000000000000000000000000000000000000000000081525090506124a4565b600082905060005b6000821461237657808061235f90613431565b915050600a8261236f919061324c565b915061234c565b60008167ffffffffffffffff8111156123b8577f4e487b7100000000000000000000000000000000000000000000000000000000600052604160045260246000fd5b6040519080825280601f01601f1916602001820160405280156123ea5781602001600182028036833780820191505090505b5090505b6000851461249d5760018261240391906132d7565b9150600a8561241291906134a4565b603061241e91906131f6565b60f81b81838151811061245a577f4e487b7100000000000000000000000000000000000000000000000000000000600052603260045260246000fd5b60200101907effffffffffffffffffffffffffffffffffffffffffffffffffffffffffffff1916908160001a905350600a85612496919061324c565b94506123ee565b8093505050505b919050565b600080823b905060008111915050919050565b8280546124c8906133ce565b90600052602060002090601f0160209004810192826124ea5760008555612531565b82601f1061250357805160ff1916838001178555612531565b82800160010185558215612531579182015b82811115612530578251825591602001919060010190612515565b5b50905061253e9190612542565b5090565b5b8082111561255b576000816000905550600101612543565b5090565b600061257261256d846130ec565b6130c7565b9050808382526020820190508285602086028201111561259157600080fd5b60005b858110156125db57813567ffffffffffffffff8111156125b357600080fd5b8086016125c08982612709565b85526020850194506020840193505050600181019050612594565b5050509392505050565b60006125f86125f384613118565b6130c7565b90508281526020810184848401111561261057600080fd5b61261b84828561338c565b509392505050565b600061263661263184613149565b6130c7565b90508281526020810184848401111561264e57600080fd5b61265984828561338c565b509392505050565b60008135905061267081613a49565b92915050565b600082601f83011261268757600080fd5b813561269784826020860161255f565b91505092915050565b6000813590506126af81613a60565b92915050565b6000813590506126c481613a77565b92915050565b6000815190506126d981613a77565b92915050565b600082601f8301126126f057600080fd5b81356127008482602086016125e5565b91505092915050565b600082601f83011261271a57600080fd5b813561272a848260208601612623565b91505092915050565b60008135905061274281613a8e565b92915050565b60006020828403121561275a57600080fd5b600061276884828501612661565b91505092915050565b6000806040838503121561278457600080fd5b600061279285828601612661565b92505060206127a385828601612661565b9150509250929050565b6000806000606084860312156127c257600080fd5b60006127d086828701612661565b93505060206127e186828701612661565b92505060406127f286828701612733565b9150509250925092565b6000806000806080858703121561281257600080fd5b600061282087828801612661565b945050602061283187828801612661565b935050604061284287828801612733565b925050606085013567ffffffffffffffff81111561285f57600080fd5b61286b878288016126df565b91505092959194509250565b6000806040838503121561288a57600080fd5b600061289885828601612661565b925050602083013567ffffffffffffffff8111156128b557600080fd5b6128c185828601612676565b9150509250929050565b600080604083850312156128de57600080fd5b60006128ec85828601612661565b92505060206128fd858286016126a0565b9150509250929050565b6000806040838503121561291a57600080fd5b600061292885828601612661565b925050602061293985828601612733565b9150509250929050565b60006020828403121561295557600080fd5b6000612963848285016126b5565b91505092915050565b60006020828403121561297e57600080fd5b600061298c848285016126ca565b91505092915050565b6000602082840312156129a757600080fd5b60006129b584828501612733565b91505092915050565b600080604083850312156129d157600080fd5b60006129df85828601612733565b92505060206129f085828601612661565b9150509250929050565b6000612a068383612a12565b60208301905092915050565b612a1b8161330b565b82525050565b612a2a8161330b565b82525050565b6000612a3b8261318a565b612a4581856131b8565b9350612a508361317a565b8060005b83811015612a81578151612a6888826129fa565b9750612a73836131ab565b925050600181019050612a54565b5085935050505092915050565b612a978161331d565b82525050565b6000612aa882613195565b612ab281856131c9565b9350612ac281856020860161339b565b612acb81613591565b840191505092915050565b6000612ae1826131a0565b612aeb81856131da565b9350612afb81856020860161339b565b612b0481613591565b840191505092915050565b6000612b1a826131a0565b612b2481856131eb565b9350612b3481856020860161339b565b80840191505092915050565b6000612b4d6032836131da565b9150612b58826135a2565b604082019050919050565b6000612b70601c836131da565b9150612b7b826135f1565b602082019050919050565b6000612b936024836131da565b9150612b9e8261361a565b604082019050919050565b6000612bb66019836131da565b9150612bc182613669565b602082019050919050565b6000612bd9602c836131da565b9150612be482613692565b604082019050919050565b6000612bfc6038836131da565b9150612c07826136e1565b604082019050919050565b6000612c1f602a836131da565b9150612c2a82613730565b604082019050919050565b6000612c426029836131da565b9150612c4d8261377f565b604082019050919050565b6000612c65602e836131da565b9150612c70826137ce565b604082019050919050565b6000612c886020836131da565b9150612c938261381d565b602082019050919050565b6000612cab6031836131da565b9150612cb682613846565b604082019050919050565b6000612cce602c836131da565b9150612cd982613895565b604082019050919050565b6000612cf16029836131da565b9150612cfc826138e4565b604082019050919050565b6000612d14602f836131da565b9150612d1f82613933565b604082019050919050565b6000612d376021836131da565b9150612d4282613982565b604082019050919050565b6000612d5a600a836131da565b9150612d65826139d1565b602082019050919050565b6000612d7d6031836131da565b9150612d88826139fa565b604082019050919050565b612d9c81613375565b82525050565b6000612dae8285612b0f565b9150612dba8284612b0f565b91508190509392505050565b6000602082019050612ddb6000830184612a21565b92915050565b6000608082019050612df66000830187612a21565b612e036020830186612a21565b612e106040830185612d93565b8181036060830152612e228184612a9d565b905095945050505050565b60006020820190508181036000830152612e478184612a30565b905092915050565b6000602082019050612e646000830184612a8e565b92915050565b60006020820190508181036000830152612e848184612ad6565b905092915050565b60006020820190508181036000830152612ea581612b40565b9050919050565b60006020820190508181036000830152612ec581612b63565b9050919050565b60006020820190508181036000830152612ee581612b86565b9050919050565b60006020820190508181036000830152612f0581612ba9565b9050919050565b60006020820190508181036000830152612f2581612bcc565b9050919050565b60006020820190508181036000830152612f4581612bef565b9050919050565b60006020820190508181036000830152612f6581612c12565b9050919050565b60006020820190508181036000830152612f8581612c35565b9050919050565b60006020820190508181036000830152612fa581612c58565b9050919050565b60006020820190508181036000830152612fc581612c7b565b9050919050565b60006020820190508181036000830152612fe581612c9e565b9050919050565b6000602082019050818103600083015261300581612cc1565b9050919050565b6000602082019050818103600083015261302581612ce4565b9050919050565b6000602082019050818103600083015261304581612d07565b9050919050565b6000602082019050818103600083015261306581612d2a565b9050919050565b6000602082019050818103600083015261308581612d4d565b9050919050565b600060208201905081810360008301526130a581612d70565b9050919050565b60006020820190506130c16000830184612d93565b92915050565b60006130d16130e2565b90506130dd8282613400565b919050565b6000604051905090565b600067ffffffffffffffff82111561310757613106613562565b5b602082029050602081019050919050565b600067ffffffffffffffff82111561313357613132613562565b5b61313c82613591565b9050602081019050919050565b600067ffffffffffffffff82111561316457613163613562565b5b61316d82613591565b9050602081019050919050565b6000819050602082019050919050565b600081519050919050565b600081519050919050565b600081519050919050565b6000602082019050919050565b600082825260208201905092915050565b600082825260208201905092915050565b600082825260208201905092915050565b600081905092915050565b600061320182613375565b915061320c83613375565b9250827fffffffffffffffffffffffffffffffffffffffffffffffffffffffffffffffff03821115613241576132406134d5565b5b828201905092915050565b600061325782613375565b915061326283613375565b92508261327257613271613504565b5b828204905092915050565b600061328882613375565b915061329383613375565b9250817fffffffffffffffffffffffffffffffffffffffffffffffffffffffffffffffff04831182151516156132cc576132cb6134d5565b5b828202905092915050565b60006132e282613375565b91506132ed83613375565b925082821015613300576132ff6134d5565b5b828203905092915050565b600061331682613355565b9050919050565b60008115159050919050565b60007fffffffff0000000000000000000000000000000000000000000000000000000082169050919050565b600073ffffffffffffffffffffffffffffffffffffffff82169050919050565b6000819050919050565b600060ff82169050919050565b82818337600083830152505050565b60005b838110156133b957808201518184015260208101905061339e565b838111156133c8576000848401525b50505050565b600060028204905060018216806133e657607f821691505b602082108114156133fa576133f9613533565b5b50919050565b61340982613591565b810181811067ffffffffffffffff8211171561342857613427613562565b5b80604052505050565b600061343c82613375565b91507fffffffffffffffffffffffffffffffffffffffffffffffffffffffffffffffff82141561346f5761346e6134d5565b5b600182019050919050565b60006134858261337f565b915060ff821415613499576134986134d5565b5b600182019050919050565b60006134af82613375565b91506134ba83613375565b9250826134ca576134c9613504565b5b828206905092915050565b7f4e487b7100000000000000000000000000000000000000000000000000000000600052601160045260246000fd5b7f4e487b7100000000000000000000000000000000000000000000000000000000600052601260045260246000fd5b7f4e487b7100000000000000000000000000000000000000000000000000000000600052602260045260246000fd5b7f4e487b7100000000000000000000000000000000000000000000000000000000600052604160045260246000fd5b6000601f19601f8301169050919050565b7f4552433732313a207472616e7366657220746f206e6f6e20455243373231526560008201527f63656976657220696d706c656d656e7465720000000000000000000000000000602082015250565b7f4552433732313a20746f6b656e20616c7265616479206d696e74656400000000600082015250565b7f4552433732313a207472616e7366657220746f20746865207a65726f2061646460008201527f7265737300000000000000000000000000000000000000000000000000000000602082015250565b7f4552433732313a20617070726f766520746f2063616c6c657200000000000000600082015250565b7f4552433732313a206f70657261746f7220717565727920666f72206e6f6e657860008201527f697374656e7420746f6b656e0000000000000000000000000000000000000000602082015250565b7f4552433732313a20617070726f76652063616c6c6572206973206e6f74206f7760008201527f6e6572206e6f7220617070726f76656420666f7220616c6c0000000000000000602082015250565b7f4552433732313a2062616c616e636520717565727920666f7220746865207a6560008201527f726f206164647265737300000000000000000000000000000000000000000000602082015250565b7f4552433732313a206f776e657220717565727920666f72206e6f6e657869737460008201527f656e7420746f6b656e0000000000000000000000000000000000000000000000602082015250565b7f45524337323155524953746f726167653a2055524920736574206f66206e6f6e60008201527f6578697374656e7420746f6b656e000000000000000000000000000000000000602082015250565b7f4552433732313a206d696e7420746f20746865207a65726f2061646472657373600082015250565b7f45524337323155524953746f726167653a2055524920717565727920666f722060008201527f6e6f6e6578697374656e7420746f6b656e000000000000000000000000000000602082015250565b7f4552433732313a20617070726f76656420717565727920666f72206e6f6e657860008201527f697374656e7420746f6b656e0000000000000000000000000000000000000000602082015250565b7f4552433732313a207472616e73666572206f6620746f6b656e2074686174206960008201527f73206e6f74206f776e0000000000000000000000000000000000000000000000602082015250565b7f4552433732314d657461646174613a2055524920717565727920666f72206e6f60008201527f6e6578697374656e7420746f6b656e0000000000000000000000000000000000602082015250565b7f4552433732313a20617070726f76616c20746f2063757272656e74206f776e6560008201527f7200000000000000000000000000000000000000000000000000000000000000602082015250565b7f41444d494e5f4f4e4c5900000000000000000000000000000000000000000000600082015250565b7f4552433732313a207472616e736665722063616c6c6572206973206e6f74206f60008201527f776e6572206e6f7220617070726f766564000000000000000000000000000000602082015250565b613a528161330b565b8114613a5d57600080fd5b50565b613a698161331d565b8114613a7457600080fd5b50565b613a8081613329565b8114613a8b57600080fd5b50565b613a9781613375565b8114613aa257600080fd5b5056fea264697066735822122008c631af625f422ee98518733c8ca6bb87fe84287dc5a9227412846db1741c7864736f6c63430008040033",
  "immutableReferences": {},
  "source": "pragma solidity ^0.8.0;\n\nimport \"@openzeppelin/contracts/token/ERC721/extensions/ERC721URIStorage.sol\";\nimport \"@openzeppelin/contracts/utils/Counters.sol\";\n\ncontract NFT is ERC721URIStorage {\n    using Counters for Counters.Counter;\n    Counters.Counter private _tokenIds;\n    address public owner=0x7d477dd546090EBF7dB262ED23CAb058623B97b8;\n    uint public normalPrice =100000000000000000; //0.1 eth (one nft)\n    uint public whiteListPrice=10000000000000000; //0.01 eth\n    uint public maxLength=10; // max nft per request\n    uint public maxMintLimit=100;\n    address[] public whitelist;\n    uint public totalMint=0;\n    string public nftName=\"NFT\";\n    string public chain=\"0x5\";\n\n    constructor() ERC721(\"NFT\", \"NFT\") {\n    }\n\n\n    receive() external payable {} \n    \n     modifier onlyOwner{\n        require(\n            msg.sender==owner,\"ADMIN_ONLY\"\n        );\n        _;\n    }\n\n    function awardItem(address player, string[] memory tokenURI) public payable{\n        bool whitelisted=false;\n        bool whitelistedPriceBool=false;\n        for (uint8 i=0;i<whitelist.length;i++){\n            if(whitelist[i]==msg.sender){\n                whitelisted=true;\n            }\n        }\n\n        require((tokenURI.length*normalPrice<=msg.value)&&(tokenURI.length<=maxLength)&&(!((maxMintLimit-tokenURI.length)<=0))||(whitelisted));\n        if(whitelisted){\n            whitelistedPriceBool=(msg.value>=(whiteListPrice*tokenURI.length));\n            require(whitelistedPriceBool);\n        }\n        \n        for (uint i=0; i<tokenURI.length; i++) {\n        uint256 newItemId = _tokenIds.current();\n        _tokenIds.increment();\n        _mint(player, newItemId);\n        _setTokenURI(newItemId, tokenURI[i]);\n        totalMint++;\n        }\n    }\n\n\n    function claimBalance(uint withdrawAmount) external payable onlyOwner{\n        payable(msg.sender).transfer(withdrawAmount);\n\n    }\n    function sendBalance(uint withdrawAmount,address adres) external payable onlyOwner{\n         payable(adres).transfer(withdrawAmount);\n    }\n\n    function addWhiteListAdress(address adres) external payable onlyOwner{\n                whitelist.push(adres);\n    }\n    function changeOwner(address adres) external payable onlyOwner{\n        owner=adres;\n    }\n    function changeWhiteListedPrice(uint wprice) external payable onlyOwner{\n        whiteListPrice=wprice;\n    }\n    function getWhiteListAddress() public view returns(address[] memory){\n        return whitelist;\n    }\n     function changeNFTPrice(uint nprice) external payable onlyOwner{\n        normalPrice=nprice;\n    }\n    \n}",
  "sourcePath": "C:\\Users\\KEKW\\Desktop\\PersonalProjects\\nft-mint-s\\contracts\\NFT.sol",
  "compiler": {
    "name": "solc",
    "version": "0.8.4+commit.c7e474f2.Emscripten.clang"
  },
  "schemaVersion": "3.4.3",
  "updatedAt": "2021-11-12T16:01:41.743Z",
  "networkType": "ethereum",
  "devdoc": {
    "kind": "dev",
    "methods": {
      "approve(address,uint256)": {
        "details": "See {IERC721-approve}."
      },
      "balanceOf(address)": {
        "details": "See {IERC721-balanceOf}."
      },
      "getApproved(uint256)": {
        "details": "See {IERC721-getApproved}."
      },
      "isApprovedForAll(address,address)": {
        "details": "See {IERC721-isApprovedForAll}."
      },
      "name()": {
        "details": "See {IERC721Metadata-name}."
      },
      "ownerOf(uint256)": {
        "details": "See {IERC721-ownerOf}."
      },
      "safeTransferFrom(address,address,uint256)": {
        "details": "See {IERC721-safeTransferFrom}."
      },
      "safeTransferFrom(address,address,uint256,bytes)": {
        "details": "See {IERC721-safeTransferFrom}."
      },
      "setApprovalForAll(address,bool)": {
        "details": "See {IERC721-setApprovalForAll}."
      },
      "supportsInterface(bytes4)": {
        "details": "See {IERC165-supportsInterface}."
      },
      "symbol()": {
        "details": "See {IERC721Metadata-symbol}."
      },
      "tokenURI(uint256)": {
        "details": "See {IERC721Metadata-tokenURI}."
      },
      "transferFrom(address,address,uint256)": {
        "details": "See {IERC721-transferFrom}."
      }
    },
    "version": 1
  },
  "userdoc": {
    "kind": "user",
    "methods": {},
    "version": 1
  }
}